{
    "_format": "hh-sol-artifact-1",
    "contractName": "Send_Ethereum",
    "sourceName": "contracts/Send_Ethereum.sol",
    "abi": [
        {
            "anonymous": false,
            "inputs": [
                {
                    "indexed": false,
                    "internalType": "address",
                    "name": "from",
                    "type": "address"
                },
                {
                    "indexed": false,
                    "internalType": "address",
                    "name": "receiver",
                    "type": "address"
                },
                {
                    "indexed": false,
                    "internalType": "uint256",
                    "name": "amount",
                    "type": "uint256"
                },
                {
                    "indexed": false,
                    "internalType": "uint256",
                    "name": "timestamp",
                    "type": "uint256"
                }
            ],
            "name": "Send",
            "type": "event"
        },
        {
            "inputs": [],
            "name": "getAllTransactions",
            "outputs": [
                {
                    "components": [
                        {
                            "internalType": "address",
                            "name": "sender",
                            "type": "address"
                        },
                        {
                            "internalType": "address",
                            "name": "receiver",
                            "type": "address"
                        },
                        {
                            "internalType": "uint256",
                            "name": "amount",
                            "type": "uint256"
                        },
                        {
                            "internalType": "uint256",
                            "name": "timestamp",
                            "type": "uint256"
                        }
                    ],
                    "internalType": "struct Send_Ethereum.SendStructure[]",
                    "name": "",
                    "type": "tuple[]"
                }
            ],
            "stateMutability": "view",
            "type": "function"
        },
        {
            "inputs": [],
            "name": "getTransactionCount",
            "outputs": [
                {
                    "internalType": "uint256",
                    "name": "",
                    "type": "uint256"
                }
            ],
            "stateMutability": "view",
            "type": "function"
        },
        {
            "inputs": [
                {
                    "internalType": "address payable",
                    "name": "receiver",
                    "type": "address"
                },
                {
                    "internalType": "uint256",
                    "name": "amount",
                    "type": "uint256"
                }
            ],
            "name": "sendEth",
            "outputs": [],
            "stateMutability": "nonpayable",
            "type": "function"
        }
    ],
    "bytecode": "0x608060405234801561001057600080fd5b50610703806100206000396000f3fe608060405234801561001057600080fd5b50600436106100415760003560e01c806327506f53146100465780632e7700f01461006457806349dcbc5e14610082575b600080fd5b61004e61009e565b60405161005b919061049a565b60405180910390f35b61006c6101bd565b60405161007991906104cb565b60405180910390f35b61009c60048036038101906100979190610555565b6101c6565b005b60606001805480602002602001604051908101604052809291908181526020016000905b828210156101b457838290600052602060002090600402016040518060800160405290816000820160009054906101000a900473ffffffffffffffffffffffffffffffffffffffff1673ffffffffffffffffffffffffffffffffffffffff1673ffffffffffffffffffffffffffffffffffffffff1681526020016001820160009054906101000a900473ffffffffffffffffffffffffffffffffffffffff1673ffffffffffffffffffffffffffffffffffffffff1673ffffffffffffffffffffffffffffffffffffffff16815260200160028201548152602001600382015481525050815260200190600101906100c2565b50505050905090565b60008054905090565b60016000808282546101d891906105c4565b92505081905550600160405180608001604052803373ffffffffffffffffffffffffffffffffffffffff1681526020018473ffffffffffffffffffffffffffffffffffffffff16815260200183815260200142815250908060018154018082558091505060019003906000526020600020906004020160009091909190915060008201518160000160006101000a81548173ffffffffffffffffffffffffffffffffffffffff021916908373ffffffffffffffffffffffffffffffffffffffff16021790555060208201518160010160006101000a81548173ffffffffffffffffffffffffffffffffffffffff021916908373ffffffffffffffffffffffffffffffffffffffff160217905550604082015181600201556060820151816003015550507f9d0fd0eb4d878bee25698230ff61916343544367c75bd1e5fa8cbdf137d07e69338383426040516103309493929190610688565b60405180910390a15050565b600081519050919050565b600082825260208201905092915050565b6000819050602082019050919050565b600073ffffffffffffffffffffffffffffffffffffffff82169050919050565b600061039382610368565b9050919050565b6103a381610388565b82525050565b6000819050919050565b6103bc816103a9565b82525050565b6080820160008201516103d8600085018261039a565b5060208201516103eb602085018261039a565b5060408201516103fe60408501826103b3565b50606082015161041160608501826103b3565b50505050565b600061042383836103c2565b60808301905092915050565b6000602082019050919050565b60006104478261033c565b6104518185610347565b935061045c83610358565b8060005b8381101561048d5781516104748882610417565b975061047f8361042f565b925050600181019050610460565b5085935050505092915050565b600060208201905081810360008301526104b4818461043c565b905092915050565b6104c5816103a9565b82525050565b60006020820190506104e060008301846104bc565b92915050565b600080fd5b60006104f682610368565b9050919050565b610506816104eb565b811461051157600080fd5b50565b600081359050610523816104fd565b92915050565b610532816103a9565b811461053d57600080fd5b50565b60008135905061054f81610529565b92915050565b6000806040838503121561056c5761056b6104e6565b5b600061057a85828601610514565b925050602061058b85828601610540565b9150509250929050565b7f4e487b7100000000000000000000000000000000000000000000000000000000600052601160045260246000fd5b60006105cf826103a9565b91506105da836103a9565b9250827fffffffffffffffffffffffffffffffffffffffffffffffffffffffffffffffff0382111561060f5761060e610595565b5b828201905092915050565b61062381610388565b82525050565b6000819050919050565b600061064e61064961064484610368565b610629565b610368565b9050919050565b600061066082610633565b9050919050565b600061067282610655565b9050919050565b61068281610667565b82525050565b600060808201905061069d600083018761061a565b6106aa6020830186610679565b6106b760408301856104bc565b6106c460608301846104bc565b9594505050505056fea2646970667358221220a771eaf91b28d3bb12547d0ade32e4d0d115864abeceb14d29dfcbeef71fb77364736f6c634300080a0033",
    "linkReferences": {},
    "deployedLinkReferences": {}
}